:040000008031E22841
:10000800803120007F08DA00911E0B280C28712807
:1000180023009D1C1028112814281D121D161428B1
:10002800200068086704031D1A281B2828282300B5
:1000380019082000D800D90158082100C000200064
:1000480059082100C100282820006808803AFF00CC
:1000580080307F02031D322801306702031C3528D7
:100068003628532821004108803A2000D800680823
:10007800803A5802031D4328670821004002031CE8
:10008800462847285328230019082000D800670865
:10009800FF3EA03E860087015808810053280130A2
:1000A8002000E7070030E83D21004108803A2000A1
:1000B800D8006808803A5802031D6528670821009F
:1000C800400203186828692871282000E701E80120
:1000D8008031E5208031712871280B1D742875281E
:1000E800832820006F1C79287A28832806309500F9
:1000F80001302100C2070030C33D0B1183282000C6
:10010800911C87288828A1288D1C8B288C289C283E
:100118000D1C8F28902895280130DB070030DC3D26
:100128009A280130DB020030DC3B9A288D109E288B
:100138008D149E289A019110A128931CA428A52803
:10014800C0288C1EA828A928B9280C1EAC28AD28C0
:10015800B2280130DF070030E03DB7280130DF0268
:100168000030E03BB7288C12BB288C16BB2828002F
:10017800950120009310C028931DC328C428DF28A8
:100188008D1EC728C828D8280D1ECB28CC28D128D2
:100198000130E3070030E43DD6280130E3020030A7
:1001A800E43BD6288D12DA288D16DA2828009C011F
:1001B80020009311DF285A08FF00090088018E31BA
:1001C800142E8B1721002008413A031DEC28ED2836
:1001D80022292108413A031DF228F328F7288C31F7
:1001E800372480313C2B21002108583A031DFD2873
:1001F800FE2802298C31722480313C2B21002108F1
:10020800593A031D082909290D298C31E724803121
:100218003C2B210021085A3A031D132914291829B7
:100228008C31F82480313C2B03302000D70057084C
:10023800EA043C2B3C2B3C2B3C2B3C2B210020087C
:10024800523A031D28292929B5292108533A031DA3
:100258002E292F29392920006A08D700570821009C
:10026800B100B0010314B00DB12921084C3A031DA7
:100278003E293F29492920000E09D70057082100A7
:10028800B100B0010314B00DB1292108503A031D83
:100298004E294F2978292208583A031D54295529EF
:1002A80059298D3109258031B12921002208593A6F
:1002B800031D5F29602964298D311B258031B129EF
:1002C800210022085A3A031D6A296B296F298D31AA
:1002D8002D258031B12903302000D7005708EA04C2
:1002E800B129B129B129B12921002108563A031DA4
:1002F8007E297F29A8292208583A031D842985299F
:1003080089298C3141248031B12921002208593AA8
:10031800031D8F29902994298C314C248031B129CF
:10032800210022085A3A031D9A299B299F298731BF
:10033800F5278031B12903302000D7005708EA0497
:10034800B129B129B129B12903302000D7005708B4
:10035800EA04B129B129B129B1298F31B9278031EE
:100368003C2B21002008433A031DBB29BC29D9296D
:100378002108533A031DC129C229C6298B31D42328
:1003880080313C2B210021084C3A031DCC29CD2972
:10039800D1298B31D72380313C2B03302000D70063
:1003A8005708EA043C2B3C2B3C2B21002008493AF7
:1003B800031DDF29E029E72987315D2780318F3147
:1003C800B92780313C2B21002008533A031DED2921
:1003D800EE29612A21084E3A031DF329F4291D2A22
:1003E8002208583A031DF929FA29FE298D318C254E
:1003F80080313C2B21002208593A031D042A052A82
:10040800092A8D31A32580313C2B210022085A3A34
:10041800031D0F2A102A142A8D31BA2580313C2B4E
:1004280003302000D7005708EA043C2B3C2B3C2B18
:100438003C2B21002108483A031D232A242A3C2B5F
:100448002208413A031D292A2A2A342A8E316E2687
:1004580080318E31A42680318E31DA2680313C2BD2
:1004680021002208583A031D3A2A3B2A3F2A8E3196
:10047800A42680313C2B21002208593A031D452A25
:10048800462A4A2A8E31DA2680313C2B210022085E
:100498005A3A031D502A512A552A8E316E26803128
:1004A8003C2B03302000D7005708EA043C2B3C2B98
:1004B8003C2B3C2B3C2B3C2B3C2B21002008573A57
:1004C800031D672A682A312B2108563A031D6D2A15
:1004D8006E2A972A2208583A031D732A742A782A02
:1004E8008B31EF2380313C2B21002208593A031D20
:1004F8007E2A7F2A832A8B31F62380313C2B2100E8
:1005080022085A3A031D892A8A2A8E2A8B31FD230A
:1005180080313C2B03302000D7005708EA043C2BDD
:100528003C2B3C2B3C2B21002108463A031D9D2ADD
:100538009E2AC72A2208583A031DA32AA42AA82AB1
:100548008C31812480313C2B21002208593A031D2B
:10055800AE2AAF2AB32A8C31922480313C2B210059
:1005680022085A3A031DB92ABA2ABE2A8C31A32472
:1005780080313C2B03302000D7005708EA043C2B7D
:100588003C2B3C2B3C2B21002108533A031DCD2A40
:10059800CE2AF72A2208583A031DD32AD42AD82A61
:1005A8008C31B42480313C2B21002208593A031D98
:1005B800DE2ADF2AE32A8C31C52480313C2B210036
:1005C80022085A3A031DE92AEA2AEE2A8C31D6244F
:1005D80080313C2B03302000D7005708EA043C2B1D
:1005E8003C2B3C2B3C2B21002108503A031DFD2AB3
:1005F800FE2A272B2208583A031D032B042B082B0D
:100608008D313F2580313C2B21002208593A031DAA
:100618000E2B0F2B132B8D31512580313C2B2100B4
:1006280022085A3A031D192B1A2B1E2B8D316325CC
:1006380080313C2B03302000D7005708EA043C2BBC
:100648003C2B3C2B3C2B03302000D7005708EA04F6
:100658003C2B3C2B3C2B3C2B3C2B03302000D70065
:100668005708EA043C2B3C2B3C2B3C2B3C2B3C2BCB
:10067800080020002E08B4002F08B5003008B60086
:100688000310350D360DB7003708B800B808031D3C
:100698004E2B4F2B572B0030AE000030AF000030F0
:1006A800B000062C062C3108B4003208B500330817
:1006B800B6000310350D360DB7003708BD00BD086C
:1006C800031D672B682B702B0030AE000030AF0085
:1006D8000030B000062C062C3D087B3EB4003408E0
:1006E800B8072E08B4002F08B5003008B60010303F
:1006F800B636B50CB40C890B7C2B3408B700370818
:10070800BD003108B4003208B5003308B600103017
:10071800B636B50CB40C890B8C2B3408B7003708E7
:10072800BD068030B4003408BD05AF17B217FF30DE
:10073800B105FF30B2050030B3050030B900003014
:10074800BA000030BB000730B4003408BC00AC2B42
:100758002E1CAF2BB02BB72B3108B9073208BA3D86
:100768003308BB3DB72B0130B036AF0CAE0C890B4C
:10077800B82B0130B135B20DB30D890BBE2B01304A
:10078800BC02031DC82BC92BAC2BCA2B0930B400E3
:100798003408BC00CF2B2E1CD22BD32BDA2B3108DC
:1007A800B9073208BA3D3308BB3DDA2B0130B03601
:1007B800AF0CAE0C890BDB2B0130BB36BA0CB90C75
:1007C800890BE12B0130BC02031DEB2BEC2BCF2B4B
:1007D800ED2B3908F0003A08F1003B08F200380820
:1007E800B4003408F3003D08B5003508F40085313D
:1007F800DF25833170082000AE007108AF00720851
:10080800B000062C080020004108C4004208C500BA
:100818004308C6000310450D460DC7004708CC0025
:10082800CC08031D182C192C212C0030BE000030D8
:10083800BF000030C000BE2CBE2C3E08C4003F08DC
:10084800C5004008C6000310450D460DC7004708FF
:10085800CD00CD08031D312C322C3A2C0030BE00BF
:100868000030BF000030C000BE2CBE2C0030C900D4
:100878000030CA000030CB0089304D07C40044085E
:10088800CC024108C4004208C5004308C600103025
:10089800C636C50CC40C890B4C2C4408C700470845
:1008A800CD003E08C4003F08C5004008C60010300F
:1008B800C636C50CC40C890B5C2C4408C700470815
:1008C800CD068030C4004408CD05C217FF30C105ED
:1008D800FF30C2050030C305BF17FF30BE05FF302B
:1008E800BF050030C0051830C4004408C8007C2C7F
:1008F8000130C935CA0DCB0D890B7D2C4008430248
:10090800031D8C2C3F084202031D8C2C3E0841021B
:10091800031C8F2C902C982C3E08C1023F08C23B28
:100928004008C33B4914982C0130C135C20DC30D92
:10093800890B992C0130C802031DA32CA42C7C2CF4
:10094800A52C4908F0004A08F1004B08F2004C08B1
:10095800C4004408F3004D08C5004508F40085317B
:10096800DF25843170082000BE007108BF007208BE
:10097800C000BE2C080078082000A0007908A1005B
:100988007A08A2000310210D220DA3002308A90054
:10099800A908031DD02CD12CDB2C0030FB00003023
:1009A800FA000030F9000030F8005D2D5D2D780860
:1009B800A0007908A1007A08A2001730A236A10C7D
:1009C800A00C890BE22C2008A3002308A400F91727
:1009D800FF30F805FF30F9050030FA057808A50062
:1009E8007908A6007A08A700A8018E30A902A91FD5
:1009F800FE2CFF2C222D2908803A8F3E0318052D46
:100A0800062D112D0030FB000030FA000030F900EF
:100A18000030F8005D2D5D2D112D0130A836A70C92
:100A2800A60CA50C890B122D0130A0002008A907DF
:100A3800031D1F2D202D112D442D442D1830290262
:100A4800031C272D282D3D2D0030FB000030FA0017
:100A58000030F9000030F8005D2D5D2D3D2D01308E
:100A6800A535A60DA70DA80D890B342D0130A902B7
:100A78003D2DA908031D412D422D332D442D442D14
:100A88002408031D482D542DA509A609A709A8095E
:100A9800A50A0319A60A0319A70A0319A80A542DB7
:100AA8002808FB002708FA002608F9002508F8009E
:100AB8005D2D0800FF30F8007F30F9004730FA005C
:100AC80020004F08AB01AB074E08AA01AA078D31D9
:100AD8007525853120002A08FB002B08FC002C080E
:100AE800FD008731A9278531031C7B2D7C2DD62D50
:100AF80020004F08AB01AB074E08AA01AA078D31A9
:100B08007525853120002A08F8002B08F9002C08E3
:100B1800FA000030FB007630FC004330FD008731DE
:100B2800A9278531031C992D9A2DD62DF730200041
:100B3800D0005008EA052430C100F430C200473024
:100B4800C3004F08AB01AB074E08AA01AA078D31B5
:100B58007525853120002A08B1002B08B2002C0821
:100B6800B3000030AE000030AF004030B000833139
:100B78003D23853120002E08BE002F08BF00300815
:100B8800C00084310724853120003E08F8003F0862
:100B9800F9004008FA008431BF2485317808DE2D39
:100BA800DE2DDE2D09302000D0005008EA04FF3089
:100BB800DE2DDE2D08007308031DE32DEB2D7208D2
:100BC80071047004031DE92DEA2DFF2DEB2D003073
:100BD800F0000030F1000030F200512E512EFF2DB0
:100BE8000130F5007508F3070130F236F10CF00C0E
:100BF800890BF92DFF2DFE307205031D042E052EDD
:100C0800F42D1B2E1B2E0130F5007508F30701305B
:100C1800F007003003180130F107003003180130E5
:100C2800F2070130F236F10CF00C890B162EFF306A
:100C38007205031D202E212E072E2C2E2C2E01305E
:100C4800F3020130F035F10DF20D890B262E2C2E12
:100C5800F11F2F2E302E232E7318332E342E3A2EBA
:100C6800FF30F0057F30F105FF30F2050310F30C7B
:100C78007308F500F601F7011030F535F60DF70D9C
:100C8800890B412E7508F0047608F1047708F20400
:100C98007408031D502E512EF21708008C3137248A
:100CA8008631200064086606031D5C2E630865060D
:100CB80003195F2E602EAA2E64086602031D662E95
:100CC800630865020318692E6A2E6C2E0D126E2EAB
:100CD8000D166E2E0E09D2005208E9008F318027BA
:100CE8008631952E0D1E792E7A2E832EE91E7D2EA5
:100CF8007E2E832EBF30D2005208EA05832E0D1AAD
:100D0800862E872E902E691E8A2E8B2E902EBF300F
:100D1800D2005208EA05902E0E09D2005208E900C6
:100D2800952E200064086606031D9C2E6308650640
:100D380003199F2EA02EA62E6A1BA32EA42E762E54
:100D4800A62EA62E8C31F8248631AA2E08008C31C6
:100D580037248631200060086206031DB52E5F081F
:100D680061060319B82EB92E032F60086202031D0D
:100D7800BF2E5F0861020318C22EC32EC52E0C12A7
:100D8800C72E0C16C72E0E09D2005208E9008F3163
:100D980047278631EE2E0C1ED22ED32EDC2EE91DCF
:100DA800D62ED72EDC2EDF30D2005208EA05DC2EF4
:100DB8000C1ADF2EE02EE92E691DE32EE42EE92E13
:100DC800DF30D2005208EA05E92E0E09D200520897
:100DD800E900EE2E200060086206031DF52E5F086C
:100DE80061060319F82EF92EFF2EEA1AFC2EFD2EA5
:100DF800CF2EFF2EFF2E8C31E7248631032F0800DB
:100E08008C313724873120005C085E06031D0E2FC5
:100E18005B085D060319112F122F5C2F5C085E0218
:100E2800031D182F5B085D0203181B2F1C2F1E2F94
:100E38000D10202F0D14202F0E09D2005208E900A2
:100E48008F3110278731472F0D1C2B2F2C2F352F33
:100E5800E91C2F2F302F352FEF30D2005208EA052A
:100E6800352F0D18382F392F422F691C3C2F3D2F55
:100E7800422FEF30D2005208EA05422F0E09D20065
:100E88005208E900472F20005C085E06031D4E2F1C
:100E98005B085D060319512F522F582F6A1A552FD8
:100EA800562F282F582F582F8C31722487315C2FBA
:100EB80008008C31372487318B31D42387318B312B
:100EC800D72387318C31042487318C310B24873127
:100ED8008C31122487318E31A42687318E31DA265F
:100EE80087318E316E26873107302000D3005308B2
:100EF8002100B00058302000D30053082100B10071
:100F080059302000D30053082100B2005A30200085
:100F1800D30053082100B3005F302000D3005308EA
:100F28002100B40031302000D30053082100B5005F
:100F38002E302000D30053082100B60030302000A6
:100F4800D30053082100B7000800FA1FAC2FAD2FBB
:100F5800C32F78092000A0007909A1007A09A2000E
:100F6800A00A0319A10A0319A20A00302007F800F1
:100F78000030213DF9008030223DFA00C32FFD1FCB
:100F8800C62FC72FDD2F7B092000A0007C09A100F8
:100F98007D09A200A00A0319A10A0319A20A0030B8
:100FA8002007FB000030213DFC008030223DFD0081
:100FB800DD2F8030FA068030FD067D087A02031D99
:100FC800EB2F7C087902031DEB2F7B0878020318AE
:100FD800EE2FEF2FF12F0310F42F0314F42FF42F1B
:100FE80008002100B0010314B00D20006E08F000C5
:080FF80070082100B10008009F
:1017A8002000EA0108002000E90108001134113482
:1017B800063420000E09F0007008E9000800FE0059
:1017C80012001E00FE0BE42B00346400800101317E
:1017D800890BEA2B003421002308F0007008200050
:1017E800EC00080021002308F00070082000ED003C
:1017F800080021002308F00070082000EE0008000F
:101808008C3119248C3120008D110D1508008C3174
:1018180023248C3120008C130C1708008C312D24C4
:101828008C3120008D130D17080020000C1001309A
:10183800F0000030F1008D31D1258C3108002000F6
:101848008C100130F0000030F1008D31D1258C3141
:10185800080020008C110130F0000030F1008D31BB
:10186800D1258C3108008C3172248C318C31E724DD
:101878008C318C31F8248C3108002100B00103141C
:10188800B00D20006C08F00070082100B1000800BD
:101898002100B0010314B00D20006D08F00070089D
:1018A8002100B1000800D034073414340534D03492
:1018B8000734EE340234E8340334F43401341C348D
:1018C80020009A01280095019C01033020009C000B
:1018D80003302800970003309E0008002100911073
:1018E80020001C118C3119248C3120008D109A0194
:1018F800EF30F2007208EA05080021002408F00021
:10190800F1012308F200F3017208F300F2017008F4
:101918007204C40071087304C5000800210024087B
:10192800F000F1012308F200F3017208F300F2015C
:1019380070087204C80071087304C9000800210007
:101948002408F000F1012308F200F3017208F30003
:10195800F20170087204CC0071087304CD0008000D
:1019680021002408F000F1012308F200F3017208B5
:10197800F300F20170087204C60071087304C7000E
:10198800080021002408F000F1012308F200F30107
:101998007208F300F20170087204CA007108730437
:1019A800CB00080021002408F000F1012308F20010
:1019B800F3017208F300F20170087204CE00710896
:1019C8007304CF00080021009310280017118C31F0
:1019D80023248C3120008C1228009501DF30F2007E
:1019E80072082000EA0508002100931128001E1142
:1019F8008C312D248C3120008D1228009C01BF30A1
:101A0800F20072082000EA0508000230F0007008B1
:101A18002100B00020005C08F00070082100B1002F
:101A280020005B08F00070082100B20008000230B6
:101A3800F00070082100B00020006008F000700875
:101A48002100B10020005F08F00070082100B200FA
:101A580008000230F00070082100B000200064087F
:101A6800F00070082100B10020006308F000700841
:101A78002100B200080021002408F000F101230829
:101A8800F200F3017208F300F201700872042000FA
:101A9800DB0071087304DC00080021002408F00052
:101AA800F1012308F200F3017208F300F201700853
:101AB80072042000DF0071087304E00008002100B0
:101AC8002408F000F1012308F200F3017208F30082
:101AD800F201700872042000E30071087304E40046
:101AE800080020002A08F0002B08F100F2018E30CF
:101AF800AD002D08F300F4018531DF258D31700824
:101B08002000AA007108AB007208AC008B2D0800F9
:101B1800210024082000D300D4012100230820003C
:101B2800D500D6015508D600D50153085504DD0067
:101B380054085604DE00873104278D31080021003F
:101B480024082000D300D401210023082000D50058
:101B5800D6015508D600D50153085504E1005408AC
:101B68005604E2008631AB268D3108002100240896
:101B78002000D300D401210023082000D500D6017D
:101B88005508D600D50153085504E50054085604F5
:101B9800E600863152268D31080006302000950077
:101BA8000B118B162100C201C30120006F14DD2D1B
:101BB800DD2D710821004302031DE42D7008420247
:101BC8000318E72DE82DEE2D20006F18EC2DED2DD4
:101BD800DD2DEE2D20006F108B12080020006B0801
:101BE80021005002031CF92DFA2D0D2E20006B0840
:101BF80022009900E8309800FA30F0000030F10037
:101C08008D31D1258D31FB30F20072082000EA05B4
:101C1800132E0530F20072082000EA04132E080083
:101C2800EF015B3084000030850011308B31E923EF
:101C38008E31A03084000030850024308B31E923B8
:101C48008E31DA3084008B3085006C3086000030AD
:101C5800870003308B31E3238E31573084008C307A
:101C68008500C4308600003087000D308B31E323B7
:101C78008E3120008E31402EF0302100990019302D
:101C880023009B00B0309D0020309E009F018430CF
:101C98002200970020008E01BF3021008E00200016
:101CA8008D0121008D0123008D0120008C01210070
:101CB8008C01043023008C00843021009500C03052
:101CC8008B00203091008C3164248E316B2E6B2E6A
:101CD8008031E2288B31DD238E312000691A752E80
:101CE800762EA32E8C3137248E3120000D128F31A1
:101CF80080278E312000EA19822E832EA32E8A2E69
:101D08008A2E0E09D2005208E9008A2E691A8D2EF1
:101D18008E2E942E6A1B912E922E852E942E942E02
:101D28008C31F8248E312000691E9B2E9C2EA32E08
:101D3800E301E401E501E601A32EA32EA32E08008A
:101D48008B31DD238E3120006918AB2EAC2ED92EB5
:101D58008C3137248E3120000D108F3110278E31B1
:101D68002000EA19B82EB92ED92EC02EC02E0E0981
:101D7800D2005208E900C02E6918C32EC42ECA2EFC
:101D88006A1AC72EC82EBB2ECA2ECA2E8C317224B0
:101D98008E312000691CD12ED22ED92EDB01DC0118
:101DA800DD01DE01D92ED92ED92E08008B31DD2395
:101DB8008E3120006919E12EE22E0F2F8C31372445
:101DC8008E3120000C128F3147278E312000EA19FE
:101DD800EE2EEF2E0F2FF62EF62E0E09D2005208F9
:101DE800E900F62E6919F92EFA2E002FEA1AFD2EAF
:101DF800FE2EF12E002F002F8C31E7248E3120008B
:101E0800691D072F082F0F2FDF01E001E101E20113
:101E18000F2F0F2F0F2F08008C3104248F31210032
:101E280047082000CF01CF07210046082000CE0137
:101E3800CE0785315E258F3120009B006B086C062C
:101E48000319272F282F302F6C08D1005108EB00D9
:101E58008D31F2258F31302F2000EA19342F352F9C
:101E6800462F6A160C140A30F0000030F1008D314C
:101E7800D1258F31200091102100911420001C15CC
:101E88008D14462F08008C310B248F3121004B080C
:101E98002000CF01CF0721004A082000CE01CE073D
:101EA80085315E258F312800960020006B086D066D
:101EB80003195F2F602F682F6D08D1005108EB00C0
:101EC8008D31F2258F31682F2000EA196C2F6D2F84
:101ED8007F2FEA168C140A30F0000030F1008D31A3
:101EE800D1258F3120009310210093142800171555
:101EF80020008C167F2F08008C3112248F3121008E
:101F08004F082000CF01CF0721004E082000CE0146
:101F1800CE0785315E258F3128009D0020006B0893
:101F28006E060319982F992FA12F6E08D10051081A
:101F3800EB008D31F2258F31A12F2000EA19A52F52
:101F4800A62FB82F6A178C150A30F0000030F10060
:101F58008D31D1258F312000931121009315280050
:101F68001E1520008D16B82F08008B13F401E42FDE
:101F78007408B03E86008701010823009A00F20128
:101F8800F301CB2F0130F2070030F33DCB2F73085C
:101F9800803AFF0083307F02031DD42FE83072029D
:101FA8000318D72FD82FDF2F2000111EDC2FDD2F8D
:101FB800C62FDF2FDF2F0130F0007008F407E42F61
:101FC800103074020318E92FEA2FFE2F2100300881
:101FD800013EF000003003180130F1007108803A2A
:101FE800803C031DF92F70087402031CFC2FFD2F81
:081FF800BC2FFE2F8B1708001F
:020000040001F9
:02000E00A4C983
:00000001FF
